:100000000C9434000C9451000C9451000C94510049
:100010000C9451000C9451000C9451000C9451001C
:100020000C9451000C9451000C9451000C9451000C
:100030000C9451000C9451000C9499020C945100B2
:100040000C944B020C9451000C94DF020C94260388
:100050000C9451000C947A000C9451000C945100B3
:100060000C9451000C94510011241FBECFEFD8E026
:10007000DEBFCDBF11E0A0E0B1E0E0E4F9E002C0F6
:1000800005900D92A03CB107D9F721E0A0ECB1E0BA
:1000900001C01D92AC3DB207E1F70E9451010C94E2
:1000A0009E040C940000EAE7F0E080818068808381
:1000B000808187608083ACE7B0E08C9180648C9312
:1000C0008C9183608C93AEE7B0E08C9188608C93C8
:1000D0008081886080830895EAE7F0E08081806411
:1000E000808308958091C00108958091C10190910D
:1000F000C20108951F920F920FB60F9211242F93F1
:100100008F939F93209178008091790090E0982FB1
:100110008827822B9093C2018093C10181E0809354
:10012000C0019F918F912F910F900FBE0F901F9044
:100130001895CF93DF93EC01DC010D900020E9F7D7
:100140001197A81BB90B91E0A430B1050CF490E015
:1001500081E0109709F080E0892B49F560E070E0BC
:1001600020E030E01AC0FE01E60FF71F408190ED5D
:10017000940F9A30F8F4C901880F991F220F331F8A
:10018000220F331F220F331F280F391F50E0405317
:100190005109240F351F6F5F7F4F6A177B071CF3D0
:1001A0002F3F310551F04CF08FEF9FEF08C08FEFDC
:1001B0009FEF05C08FEF9FEF02C0822F932FDF913B
:1001C000CF910895EF92FF921F93CF93DF93EC01AD
:1001D00069EB71E00E948E047C016BEB71E0CE0153
:1001E0000E948E049C0111E0EF2809F010E091E0DC
:1001F000232B09F090E0192B6DEB71E0CE010E94EA
:100200008E0421E0892B09F020E0111102C0222385
:1002100011F0888101C080E0DF91CF911F91FF90A4
:10022000EF9008958BE891E00E94CE02089520910E
:10023000C401222319F10E9499009C012F3F8FEFE6
:100240003807B9F01092C4019091C301973449F076
:10025000923519F0923421F508C0822F0E943D0298
:100260000895822F0E9409020895822F0E9423027E
:10027000089580E091E00E94CE0208950E94E2007D
:10028000882351F08093C30181E08093C40182E40C
:1002900091E00E94CE02089581E291E00E94CE0298
:1002A000089584B1866284B90E94C0020E9412013E
:1002B0000E94EA010E94530078940E94D902882388
:1002C00041F00E94DC020E94D6020E9417010E94A7
:1002D000AE020E946C000E947200882371F30E949B
:1002E00075000E940002E9CFE0E8F0E08081806FB5
:1002F0008083808181608083E1E8F0E08081886094
:1003000080838081856080830895EEE6F0E08081BF
:100310008360808385B5856085BD0895CF92DF9227
:10032000EF92FF92CF93C091B7016091B4017091A9
:10033000B50180E090E00E94930320E030E040E8C7
:100340005AE30E94F9036B017C016C2F70E080E09E
:1003500090E00E949503A70196010E94F9030E9474
:10036000640370E070938B0060938A00CF91FF90DC
:10037000EF90DF90CF900895CF92DF92EF92FF92AF
:10038000CF93C091B6016091B4017091B50180E046
:1003900090E00E94930320E030E040E85AE30E949E
:1003A000F9036B017C016C2F70E080E090E00E940B
:1003B0009503A70196010E94F9030E94640370E06F
:1003C0007093890060938800CF91FF90EF90DF9049
:1003D000CF9008958091B80187BD8091B70190E0DA
:1003E00090938B0080938A008091B60190E0909367
:1003F0008900809388000E9474010E9485010895FD
:100400009093B5018093B4010E948E010E94BC01BB
:1004100008958093B7018091B701882341F0E0E807
:10042000F0E08081806380830E948E010895E0E87F
:10043000F0E080818F7D808380818F7E808385B195
:10044000846085B908958093B6018091B6018823B0
:1004500041F0E0E8F0E08081806C80830E94BC0184
:100460000895E0E8F0E080818F77808380818F7B42
:10047000808385B1826085B908958093B8018091A9
:10048000B801882319F00E948501089515BC85B133
:10049000806285B908951F920F920FB60F921124B2
:1004A000CF92DF92EF92FF922F933F934F935F9300
:1004B0006F937F938F939F93AF93BF93CF93EF935C
:1004C000FF93C091B8016091B4017091B50180E0D3
:1004D00090E00E94930320E030E040E85AE30E945D
:1004E000F9036B017C016C2F70E080E090E00E94CA
:1004F0009503A70196010E94F9030E94640367BD5A
:1005000085B18F7D85B9FF91EF91CF91BF91AF916B
:100510009F918F917F916F915F914F913F912F911B
:10052000FF90EF90DF90CF900F900FBE0F901F9035
:1005300018951F920F920FB60F9211248F9385B1C9
:10054000806285B98F910F900FBE0F901F90189504
:10055000E1ECF0E080818F7780830895E1ECF0E0BA
:100560008081806880830895E1ECF0E080818F7D58
:1005700080830895E1ECF0E08081806280830895BB
:1005800087E68093C40086E08093C20088E1809370
:10059000C1000E94AE020E94BA020895BC0182ED21
:1005A00091E00E9497040E94BA02089588EC91E0BD
:1005B00008958091C70108951092C70108951F9270
:1005C0000F920FB60F9211242F933F934F935F9387
:1005D0006F937F938F939F93AF93BF93EF93FF930B
:1005E0008091C6008D3071F4E091C601F0E0E853CF
:1005F000FE4F10821092C60181E08093C7010E94D5
:10060000A80213C0883031F48091C60181508093D4
:10061000C6010BC0E091C601F0E0E853FE4F8083B5
:100620008091C6018F5F8093C601FF91EF91BF91CA
:10063000AF919F918F917F916F915F914F913F917A
:100640002F910F900FBE0F901F9018951F920F9231
:100650000FB60F9211242F933F934F935F936F9395
:100660007F938F939F93AF93BF93EF93FF93F894F0
:10067000E091C501F0E0EE52FE4F8081882371F0D9
:10068000E091C501F0E0EE52FE4F80818093C600FC
:100690008091C5018F5F8093C50104C01092C50190
:1006A0000E94B4027894FF91EF91BF91AF919F9116
:1006B0008F917F916F915F914F913F912F910F900B
:1006C0000FBE0F901F9018950E94D80388F09F5777
:1006D00098F0B92F9927B751B0F0E1F0660F771F66
:1006E000881F991F1AF0BA95C9F714C0B13091F05C
:1006F0000E94F203B1E008950C94F203672F782F63
:100700008827B85F39F0B93FCCF386957795679520
:10071000B395D9F73EF490958095709561957F4F8C
:100720008F4F9F4F0895E89409C097FB3EF4909532
:100730008095709561957F4F8F4F9F4F9923A9F0BA
:10074000F92F96E9BB279395F69587957795679549
:10075000B795F111F8CFFAF4BB0F11F460FF1BC08D
:100760006F5F7F4F8F4F9F4F16C0882311F096E920
:1007700011C0772321F09EE8872F762F05C06623CE
:1007800071F096E8862F70E060E02AF09A95660F87
:10079000771F881FDAF7880F9695879597F9089540
:1007A00057FD9058440F551F59F05F3F71F0479522
:1007B000880F97FB991F61F09F3F79F08795089507
:1007C000121613061406551FF2CF4695F1DF08C026
:1007D000161617061806991FF1CF86957105610543
:1007E00008940895E894BB2766277727CB0197F9EB
:1007F00008950E940C040C947D040E946F0438F04C
:100800000E94760420F0952311F00C9466040C9459
:100810006C0411240C94F3030E94D00370F3959F91
:10082000C1F3950F50E0551F629FF001729FBB27E7
:10083000F00DB11D639FAA27F00DB11DAA1F649F83
:100840006627B00DA11D661F829F2227B00DA11D36
:10085000621F739FB00DA11D621F839FA00D611DBC
:10086000221F749F3327A00D611D231F849F600DDD
:10087000211D822F762F6A2F11249F5750409AF006
:10088000F1F088234AF0EE0FFF1FBB1F661F771F92
:10089000881F91505040A9F79E3F510580F00C945D
:1008A00066040C94F3035F3FE4F3983ED4F386951B
:1008B00077956795B795F795E7959F5FC1F7FE2BFD
:1008C000880F911D9695879597F9089597F99F67D9
:1008D00080E870E060E008959FEF80EC08950024C8
:1008E0000A941616170618060906089500240A9495
:1008F00012161306140605060895092E0394000C1B
:1009000011F4882352F0BB0F40F4BF2B11F460FFA9
:1009100004C06F5F7F4F8F4F9F4F0895FB01DC0135
:100920008D91019080190110D9F3990B0895FB0165
:10093000DC0101900D920020E1F70895F894FFCFBB
:100940000D456C2076616C6F7220696E67726573FD
:1009500061646F20657320696E76616C69646F0DE8
:10096000000D456C20636F6C6F7220696E67726555
:100970007361646F20657320696E76616C69646F62
:100980000D000D4120636F6E74696E756163696F50
:100990006E2073656C656363696F6E6520756E208C
:1009A00076616C6F72207061726120616A75737418
:1009B0006172206C6120696E74656E736964616434
:1009C0002028302E2E323535290D004269656E768D
:1009D000656E69646F0D53656C656363696F6E6501
:1009E00020656C206C65643A2052202D2047202D14
:1009F00020420D000004FFFFFF52004700420000AC
:00000001FF
